:1000000018A7002069150300A95F0000AD5F00007C
:10001000A70A02020001000004180FAC002A4500E4
:1000200000000000000000000000000000000000D0
:10003000000000004CBD04000000000000000000B3
:100040000000000000000000FFFFFFFFFFFFFFFFB8
:10005000FFFFFFFFFFFFFFFFFFFFFFFFFFFFFFFFB0
:1000600000700F000000000000000000FFFFFFFF15
:10007000FFFFFFFF1C000000000000000000000068
:100080000000000000000000A8E20020A8E200201C
:1000900018A700201C52050098B3040040980020C7
:0C00A0001098002000001000000000007C
:1001000018A7002069150300A95F0000AD5F00007B
:10011000B55F0000B15F0000B95F00006515030026
:1001200065150300651503006515030065150300DB
:10013000BD5F00006515030065150300651503002C
:100140001925000091A603005164000048610000D9
:1001500021A10300FDA603009DA60300B5A6030090
:1001600095A603004D1C0000211D00003D3B000032
:10017000A9A80000486100004861000039030000A0
:100180004861000048610000451D00004861000012
:1001900048610000486100004861000048610000BB
:1001A00048610000486100004861000048610000AB
:1001B00001A7030099A603009D22000041A70300A8
:1001C000486100003562030048610000486100009A
:1001D000486100004861000048610000486100007B
:1001E000486100004861000048610000486100006B
:1001F000486100004861000048610000486100005B
:0C02000048610000486100006515030023
:10020C00F8B500BFF8BC08BC9E467047F8B500BFF7
:10021C00F8BC08BC9E46704710B5054C237833B922
:10022C00044B13B10448AFF300800123237010BDBD
:10023C0090B00020000000009C48050008B5034B5E
:10024C001BB103490348AFF3008008BD0000000058
:10025C0094B000209C480500154B002B08BF134B95
:10026C009D46A3F5803A00218B460F461348144A4D
:10027C00121A4AF0A2FB0F4B002B00D098470E4BE2
:10028C00002B00D098470020002104000D000D48E1
:10029C00002802D00C48AFF300804AF0E3FA2000AB
:1002AC00290007F0C5FF4AF0C9FA00BF000008009A
:1002BC0018A70020000000000000000090B00020F3
:1002CC00A8E20020000000000000000070B5134CF4
:1002DC008A00A31822449B781D09062D98BF104E46
:1002EC0003F00F0394BF755DFF25062B05719ABFB4
:1002FC000C4DEB5CFF234371FF3B18BF0123837153
:10030C00D37014F82130084C437053788370014635
:10031C00204603F083FC0123A36070BDACB0002029
:10032C00E3B50400DCB50400002000407FB5224991
:10033C0022480022FF23CDE901228DF809300378F1
:10034C004C6C8D6B03922C40E407DBB228D5022B4E
:10035C0026D88C6C1A4901EB8301A5B2CE781949C9
:10036C0006B326041ED521F813201749012202FAE0
:10037C0003F30A781343154A0B701378CBB100239F
:10038C001478DC40E407D9B20FD501701078012441
:10039C0004FA03F34340DBB201A81370FFF796FF96
:1003AC0004B070BD21F81350DFE70133032BE7D104
:1003BC00F6E703230370F3E700200040B8B00020F9
:1003CC00ACB00020BCB00020BAB00020B9B0002006
:1003DC000C490D4B10B5002A14BF0A461A460446A8
:1003EC000A49022000F010FE022000F0F5FD10B1C9
:1003FC00204600F02FFE06490220BDE8104000F018
:10040C0014BE00BFEAB50400F3B5040000B6040046
:10041C00DC3F050001207047012070470120704728
:10042C0010B509490446022000F0FFFD00212046CA
:10043C000EF03EF994F820000CF0FAF994F8200034
:10044C00BDE8104011F010B904B60400062804D021
:10045C0007280CBF012002207047002070470000C5
:10046C002DE9F04385B04FF48073ADF80C3001F0FA
:10047C0035FC01211548DFF85C80DFF85C9003F057
:10048C00B7FC0121124803F0B3FC0024012703AB95
:10049C000122E35C18F8336008EBC30330465D6857
:1004AC000023294604F0ECFC4946E8B201F024FC98
:1004BC00CDE9007701232A462946304604F094FC06
:1004CC0014B105B0BDE8F0830124E0E7404105001C
:1004DC0000350A0020B604006D05000008B5FFF7D2
:1004EC00B5FF022816BF024B0020185C08BD00BFE8
:1004FC00C2B0002008B5FFF7A9FF02281CBF014BB2
:10050C00195408BDC2B0002008B5FFF79FFF0228A0
:10051C0005D0034A135CB3FA83F35B09135408BD8B
:10052C00C2B0002008B5FFF791FF022811D00A4A8B
:10053C0012F8301030234B4302EBC0020749194428
:10054C00536803EBC1039B001868B0FA80F04009B4
:10055C0008BD0020FCE700BF20B604001CA0104220
:10056C0070B50446FFF7DEFF0026054601E00026C5
:10057C001D462046FFF7D6FFA8420346F7D10136A9
:10058C00052EF2D12046FFF7A9FFA8420BD0294631
:10059C002046FFF7AFFF2046FFF7A0FF014620469D
:1005AC0007F008FA70BD2046FFF7AEFF2046FFF7B4
:1005BC0095FF0146204607F0FDF92046FFF7A4FF02
:1005CC00E9E7000008B52021002000F02FFA30B137
:1005DC00034A04490220BDE8084000F015BD08BDDF
:1005EC0030B6040036B604002DE9F04F074685B04E
:1005FC0008460D46904699464AF05BFABDF838A07D
:10060C000F9E204C8346636853B9CDE901330093A8
:10061C001A46842130462FF0C1FC05B0BDE8F08F9E
:10062C0022892078991811F8011C2F2904BF02F196
:10063C00FF3292B208B1B84221D12F291DD1934576
:10064C0006D3A95CB9B12F2914BF0021012100E008
:10065C000021A1B1294618464AF033FA78B9CDE900
:10066C000EA6E4684B46424629463846A44605B0D9
:10067C00BDE8F04F60470121EBE79345E4E7103408
:10068C00C1E700BF6CD80400002070470020704701
:10069C0070477047F8B50546846802681B492020EE
:1006AC0009F063FE6B68DBB1194D1A4E1A4F013C11
:1006BC0014F8013FC3B1752B1CD0762B1CD0772BB3
:1006CC001CD0732B1CD0622B1CD06E2B1CD013494E
:1006DC00134A2A2B18BF1146202009F046FEE7E7E3
:1006EC001049202009F041FE0F492020BDE8F840B8
:1006FC0009F03BBE2946EFE73146EDE73946EBE71B
:10070C000A49E9E70A49E7E70A49E5E731BA04008B
:10071C008EB7040082B7040099B70400C1B7040077
:10072C00BEB70400BAB704007FB70400A5B7040035
:10073C00AFB70400B9B7040013B50446FFF7AAFF1E
:10074C0001A9204600F05EF918B1084C019B1B680A
:10075C000BB902B010BD2146202009F006FE01980D
:10076C00FFF798FF019B0C330193EFE7230705007C
:10077C0008B50449202009F0F8FD2020BDE8084008
:10078C0009F047BE70B6040038B5FFF7F1FF064D0F
:10079C00002460190C34631953F80C3C03B938BDB0
:1007AC00FFF778FFF5E700BFCCD30400094B10B579
:1007BC0053F820200C462020074909F0D6FD44B1FF
:1007CC000649202009F0D1FD2046BDE81040FFF776
:1007DC00B3BF10BD50B604003BB6040047B60400CE
:1007EC0000230370A0F8FC3080F81C31C0F82831CD
:1007FC00A0F81E314FF47F42A0F822310A23A0F852
:10080C00202180F824317047084B00224FF47F419F
:10081C001A70A3F8FC2083F81C21A3F81E21A3F85E
:10082C00201183F82221C3F82821704750D20020D0
:10083C000148FFF7D5BF00BF50D20020034B93F8FF
:10084C001C0193F82231C01AC0B2704750D200205C
:10085C00034B03EB40000133B0F8FC001844704725
:10086C0050D20020044B03EB400292F8FE0092F8A9
:10087C00FC30C01AC0B2704750D20020054A92F822
:10088C002231184440B202EB40000132B0F8FC3087
:10089C00D05C704750D200202DE9F047204C054623
:1008AC0094F822012844C0B243B204EB43030E4631
:1008BC00B3F8FC80FFF7D6FF8146FFF7BFFFA842D5
:1008CC0094F8247103D8D521164805F0F3F94FF0AC
:1008DC00000A55465FFA8AF399451CD90AEB0802BF
:1008EC002244507816B10BB92D280DD000F0DF0240
:1008FC00582A03D115B9013B012B0FD91AF0C8FCAA
:10090C00874204D905FB07050AF1010AE2E7052332
:10091C0084F8203100252846BDE8F0871027F3E73E
:10092C0050D2002033B8040010B5164991F8243188
:10093C00FF2B044621D1FFF795FF64B201EB440471
:10094C000246B4F8FC004B1C012A00EB030101D158
:10095C00C05C10BD022A03D108461AF0D7FBF8E799
:10096C00042A04D10020BDE810401AF0FDBB064853
:10097C00F92105F09FF90020EBE70021BDE81040BC
:10098C00FFF78ABF50D2002033B80400F8B5164BDD
:10099C0093F82421FF2A04461D4603F101060CD1CD
:1009AC0021B1C0B2FFF75EFF0138087005EB4404BB
:1009BC00B4F8FC0001303044F8BD93F82201204417
:1009CC00C0B242B203EB4203E543B3F8FC70ED0F47
:1009DC00F41939B1FFF746FFF35D401B222B08BF1A
:1009EC00013808706019E7E750D2002010B540B20A
:1009FC000C460021FFF7CAFF2146BDE8104020F04D
:100A0C008CBA000008B5D0E9012312B90B600120A3
:100A1C0008BD1B786E2B04D14FF4D271024805F03F
:100A2C0049F90020F4E700BF33B804002DE9F04F7A
:100A3C00A24C97B0814688460026B9F1000F0DD123
:100A4C000DF113015FFA88F009F0DCFC90B1262857
:100A5C0000F0B281012384F8203151E0B8F1000F8D
:100A6C0000F0AA8119F8013B8DF8133008F1FF381A
:100A7C001FFA88F894F823319DF8135084F8235109
:100A8C000D2B01D10A2DD8D00D2D0CD0A5F10A03B8
:100A9C005F425F4123783E46042BCED8DFE803F05B
:100AAC00051A244232000127F4E7002F5BD1202DD8
:100ABC0000F06581222D08D102232370B4F81E2189
:100ACC00FA2A40F05E810623C5E77B2D0CBF032379
:100ADC000123F2E70FB9202DF0D194F81C310F2B24
:100AEC0040F03E810323B6E7222D03D100238DF87D
:100AFC001330E3E7002FE1D0052384F820310126E1
:100B0C0004232370002E98D094F8200118B1D4F847
:100B1C002811FFF74BFEFFF777FE9DF8133084F892
:100B2C0023318AE77D2D94F821A104D1BAF1FF0F6E
:100B3C00D3D005238FE728461AF0AAFB0F280FD82D
:100B4C00BAF1FF0F09D094F8213100EB0310FF2309
:100B5C008DF8130084F82131B0E784F821016CE79B
:100B6C00202DE6D169E7564B059394F81C31002BE8
:100B7C00C5D0002778B2059DFFF76AFE824638463D
:100B8C00FFF770FE0022029016469346296861B961
:100B9C00E2B10591022384F8203194F82031002B26
:100BAC00ADD1059B5B689847A9E70B7843B34B1E07
:100BBC000193D446019911F8013F01910299ACEBD4
:100BCC000A0088423ED1002B3DD1AB46CDF814B083
:100BDC00BBF1000FDED094F82231C4F828B10137F4
:100BEC00013305A95846FFB284F82231FFF70AFFFA
:100BFC00002844D094F81C31BB42BBD80323CAE76D
:100C0C000F2EAB6808D94FF480712E4803920193D4
:100C1C0005F050F8039A019B16A901EB86010C35DF
:100C2C00013641F8405CF6B21D462B68002BADD165
:100C3C00002EABD0013EF6B216AB03EB860353F895
:100C4C00405CA3E72BB9BBF1000F16D001220C3589
:100C5C00EBE71CF8010BA0F1410EBEF1190F98BF88
:100C6C002030A3F1410E98BFC0B2BEF1190F9CBF4A
:100C7C002033DBB283429DD0E9E7AB46E7E7059B27
:100C8C009B681B783F2B88D0064605464FF0070A19
:100C9C004FF0040B40E0104602930192FFF7EEFD7B
:100CAC00029B019A732B0FD8712B11D2002B55D0AC
:100CBC00622B4BD084F820A120E000BF50D2002042
:100CCC00CCD30400C2B80400A3F175010229F1D8F9
:100CDC00752B34D0762B34D0732B35D0722B47F642
:100CEC00FF7318BF4FF0FF33012110460193FFF73C
:100CFC00D3FD019B984201D984F820B1059B9B68D8
:100D0C002B4401365B782A2B94F820311CBF01351B
:100D1C00EDB2002B7FF4F3AE059B94F81CC19968DF
:100D2C00F2B2B818C0B284454B5DB4D8002B3FF476
:100D3C0034AF0D446B782A2B7FF460AF2DE7FF2383
:100D4C00D2E74FF6FF73CFE77F23CDE72228D5D02C
:100D5C007B28D3D0052384F82031CFE70323FAE78F
:100D6C000133DBB284F81C3104EB4303B4F81E21CD
:100D7C00A3F8FC2000232370002F7FF4F4AE3E4632
:100D8C005BE62178012909D19DF81330A3F14100CC
:100D9C0019289CBF2033DBB28DF81330A0189DF8B6
:100DAC001330437001320229A4F81E217FF445AEA2
:100DBC00002B3FF492AE40E6304617B0BDE8F08F02
:100DCC00012270B51146042003F0E6F91A4B1B4DB5
:100DDC001A681B4842F001021A60DA684FF060444E
:100DEC0042F08072DA60174BC4F8B03F0026022341
:100DFC00C4F8006EC4F8806EC5F8F03003F0D8F873
:100E0C0000F5D520104B114A00F2FC40B0FBF3F07A
:100E1C000F4B01382861C4F8406E1A600D4BC4F8B2
:100E2C00803E4FF48073C5F80433D4F8003E43F48D
:100E3C008073C4F8003E70BDF0ED00E0000004E0EB
:100E4C0006000E0055CEACC5F8590D00FF0300404E
:100E5C00001000E00D00010010B50121114802F056
:100E6C00C7FF114B01241C60002003F0B1FF234687
:100E7C0004220221052004F003F820461AF0FAF8A7
:100E8C00FFF79EFF1AF0FCF8084B1C700AF024F8D0
:100E9C00234640220649074809F0F4FF064B186028
:100EAC00C00F10BD00350A0010881442C4B00020D9
:100EBC00C5B000204CB9040020A70020024B1868D4
:100ECC00003018BF01207047F0ED00E0054A41707A
:100EDC00D12303701378C370090A8170591C1170E7
:100EEC000420704705B100202DE9F74F0E78042E31
:100EFC0081460F4658D930F040FC751DDFF8ACA088
:100F0C00EDB280464FF6FF710024DAF800305BB189
:100F1C00A54209D9019130F030FCA0EB080080B259
:100F2C00B0F5FA7F019907D9281B18BF01200423BB
:100F3C003B7003B0BDE8F08F64B3012C2ED0EB1ED8
:100F4C0004F1010B9C425FFA8BFB12D1CCB24FF037
:100F5C006043D3F8802ED00709D5D3F8002ED205E4
:100F6C0005D51846026A002AFCD083F820405C465E
:100F7C00CBE7AB1E9C4202D1C1F30724E7E76B1E03
:100F8C009C420FD04C4414F8024C204604F09CFFB9
:100F9C000146DCE75B244FF0010BD8E734464FF0F9
:100FAC00020BD4E75D24D2E70020C0E7F0ED00E0AF
:100FBC0000B5084B91B040226946186809F050FF03
:100FCC0020B1C2B2694612201AF06CF811B05DF86B
:100FDC0004FB00BF20A70020094B18804FF6FF73BD
:100FEC00984208D0030A08D1064B1B78034214BF61
:100FFC00012000207047012070470020704700BF7F
:10100C0006B1002024A700200EB403B503AA52F8A1
:10101C00041B0192FFF7E0FF10B1202009F0BAF990
:10102C0002B05DF804EB03B070470EB403B503AA2D
:10103C0052F8041B0192FFF7CFFF28B1202009F0D2
:10104C00A9F9202009F0A0F902B05DF804EB03B077
:10105C007047000000B58BB0282269461FF04AFF8C
:10106C0028B1044B044918886A46FFF7CDFF0BB032
:10107C005DF804FB06B100204EE8040000B58DB00D
:10108C002C2301AA1FF040FF28B1044B04491888F7
:10109C0001AAFFF7B9FF0DB05DF804FB06B1002003
:1010AC004EE8040008B5FFF797FF20B12020BDE8FB
:1010BC00084009F0AEB908BD2DE9F84F074688463F
:1010CC00164699469DF828A0FFF786FF28B1002404
:1010DC0002F1FF3BB442A5B201D1BDE8F88FBAF1E1
:1010EC00000F10D0ABEB040318F803204946384628
:1010FC0005F00F05FFF788FF062D02D13846FFF7E4
:10110C00D1FF0134E6E72346EEE7000007B50023E4
:10111C000093034BFFF7D0FF03B05DF804FB00BF57
:10112C0020BB040037B500240094054D054C002B62
:10113C0014BF2B462346FFF7BFFF03B030BD00BFE3
:10114C005CB90400A0FE040037B5084C08490546FC
:10115C002088FFF759FF012300932088054B0822B4
:10116C002946FFF7A9FF03B030BD00BF06B1002030
:10117C002AF80400A0FE040037B5084C08490546BF
:10118C002088FFF741FF012300932088054B08229C
:10119C002946FFF791FF03B030BD00BF06B1002018
:1011AC002AF80400A0FE040038B504460D46AAB186
:1011BC0002200B49FFF728FF0220FFF70DFF18B1A3
:1011CC0029462046FFF75AFF06490220FFF72DFF5C
:1011DC0029462046BDE8384030F09EBD38BD00BFE2
:1011EC006DB9040060B9040070B50D46164604468E
:1011FC0090B102200949FFF707FF0220FFF7ECFE30
:10120C0018B131462846FFF739FF2246044902201F
:10121C00BDE87040FFF709BF70BD00BF68B904009E
:10122C0089B9040038B5094B1B68412B05460C469F
:10123C0005D941220A80064A1344036038BD1AF0CE
:10124C000DFA082328602380F8E700BF68C2040069
:10125C00ABC1040010B5002090B0FFF765FB402235
:10126C006946044600F058FA034630B12246064956
:10127C000220FFF7DAFE10B010BD012269460820EB
:10128C0000F09AF8F7E700BF9EB9040010B500F023
:10129C00BFF8002814BF79226E2214490220FFF7F0
:1012AC00C4FE00F0B5F8F8B100F07CFA002814BFC9
:1012BC0079226E220E490220FFF7B7FE0222104659
:1012CC000C49FFF7B2FE0C4B0C4953F8042C1C1FB5
:1012DC000220FFF7AAFE04F11003E268074902207E
:1012EC00BDE81040FFF7A1BE3F22E3E70CBB0400B2
:1012FC0023BB040033BB040080D3002052BB04008A
:10130C0070B500F0ABF8204904460220FFF78DFEC3
:10131C002CB91E490220BDE87040FFF786BE00F0D4
:10132C00A5F822691A49268805460220FFF77DFE9A
:10133C00628818490220FFF778FE1749A28802201C
:10134C00FFF773FE6388E28813F0100F14BF134984
:10135C0013490220FFF769FEA26812490220FFF729
:10136C0064FEE26810490220FFF75FFE0F4A104B43
:10137C001049B6F5817F28BF134602202A46BDE8E6
:10138C007040FFF752BE00BFE8B90400F5B9040085
:10139C0016BA040034BA040055BA040072BA040038
:1013AC008FBA0400ADBA0400CBBA0400D6B904005D
:1013BC00E0B90400E9BA04002DE9F047114EDFF85A
:1013CC004890DFF848A005460F4690460024AC42F2
:1013DC0001D1BDE8F08707EBC401012308220220EC
:1013EC00FFF7A0FE0134B8F1000F08D1A5420CBFE5
:1013FC0032464A4651460220FFF717FEE7E73246CF
:10140C00F8E700BF7FB70400DC3F050030BA0400EA
:10141C00034B1878012894BF00200120704700BFAF
:10142C0008B1002038B5054D04462878A04203D0F9
:10143C00214606F0B9FD2C7038BD00BF08B1002064
:10144C00054B1B7820B1012B04D80220FFF7EABF13
:10145C00012BFBD8704700BF08B1002008B500F085
:10146C0019F8BDE8084004F04DB9000010B5084C5F
:10147C00237853B9FFF7F2FF0123237028B10388B7
:10148C00B3F5817F24BF037D2370207810BD00BF8E
:10149C0009B1002038B5164B1B78012B27D804F066
:1014AC000FF9144C144902460220FFF7BEFD01202F
:1014BC00FFF7C6FF2578FF2D19D104F023F9A8B149
:1014CC0043880E48C3F3400318222946237004F0C6
:1014DC00C1FE2378012B0AD1FFF7C8FF042806D9D7
:1014EC00D9210748BDE8384004F0E4BB207038BD72
:1014FC0008B1002025A7002075BB04007CD3002078
:10150C0087BB0400FFF7C6BF2DE9F04F87B04FF043
:10151C00FF330026039307468A461546CDE9046639
:10152C008DF81030FFF7B6FFFFF7A0FF5B4B1B7871
:10153C00012B80461AD1012818D9B7FBF0F300FB18
:10154C0013739BB1564C2268511C03D0237A13445D
:10155C009F4237D0E268531C03D0237D13449F4233
:10156C002FD04FF49D714F4804F0A4FB4B4C2278C4
:10157C00012A09D1B7FBF8F308FB137323B140F22E
:10158C006311484804F096FB2378012B12D1EB1918
:10159C00B3FBF8F408FB143464B1A6B2291B1B1B73
:1015AC003246514404A8AD1B0393ADB204F0C8FD00
:1015BC008DF81440002D4BD1039B01335AD10026DA
:1015CC0054E001260C2303FB064332B2187A530075
:1015DC00A8EB00095FFA89F91344A9454FEA830384
:1015EC0028BF5FFA85F903F1040B009358441FFAE6
:1015FC0089F31A4651462044019304F0A1FD019B46
:10160C00ED1A0C235E43A119ADB20A7A4A44D2B248
:10161C0042450A7218D103200193FFF703FF1FFA0A
:10162C0088F204EB0B01A05904F0B8F8064602202E
:10163C00FFF7F8FE019B1A46009B2344FF21184636
:10164C0004F008FE96B9CA44002DB8D04F448DE77B
:10165C000320FFF7E7FE2A465146384604F09EF871
:10166C0006460220FFF7DEFE002EA5D0304607B05E
:10167C00BDE8F08F0A48036801330BD0C36801330F
:10168C000AD101230C220DEB020102FB030004F032
:10169C0057FD94E70023F5E70126E7E725A700208F
:1016AC007CD3002087BB040038B5184B1B78012B6A
:1016BC0028D1174CFFF7EEFE236801330FD003201F
:1016CC00FFF7B0FE2568FFF7D1FE211D82B2284638
:1016DC0004F064F805460220FFF7A4FE9DB9E36808
:1016EC0001330FD00320FFF79DFEE468FFF7BEFE29
:1016FC00084982B2204604F051F805460220FFF753
:10170C0091FE05B90025284638BD00BF25A700204D
:10171C007CD300208CD3002070B504460D461646B1
:10172C00FFF7B8FE0420FFF77DFE3246294620461F
:10173C0004F046F804460220FFF774FE204670BD04
:10174C00F8B504460E46FFF7A5FE0520FFF76AFE26
:10175C003146204604F046F8104D07460220FFF7AC
:10176C0061FE2B68591C09D09C4207D8A2199342E0
:10177C0004D20C22FF21284604F06CFDEB685A1CA5
:10178C0009D0A34207D33444A34204D20C22FF2134
:10179C00034804F05FFD3846F8BD00BF7CD3002041
:1017AC0088D3002008B5FFF775FEBDE8084004F0AB
:1017BC002BB800002DE9F04F9B46584B85B01B7899
:1017CC00109F9DF844A0DDF85080064689461546CA
:1017DC00002B00F09280072A00F291800E9B002BC8
:1017EC0000F08D800F9B002B00F08980129BB3F5CD
:1017FC00006F00F38480012801D1002F7FD0484B6B
:10180C0003EB05131B7B002B7BD0464C10220021D5
:10181C00684649F0D2F804EB45141022B9F1000FD8
:10182C005CD14946204649F0C8F8A37843F0100330
:10183C00A370E37843F03003E370BAF1000F03D1E7
:10184C00DBB243F00303E3703649129BCDF800B0D2
:10185C006A01013B885A01EB020C63F30E108852AB
:10186C000E9BCCF808300F9BCCF804309DF84C1034
:10187C009CF80330012E61F383038CF8033042D1C2
:10188C001323CCF80C309CE80F000CF1100E8EE8F2
:10189C000F00DCF81C20CCF814706FF0030161F31E
:1018AC009F02B9F1010FCCF81C2004D10F9BCCF88E
:1018BC001830CCF804701A492A018B1841F80280B0
:1018CC000027159A5A6028469F605E732246694627
:1018DC0003F064FB384605B0BDE8F08F00212046CC
:1018EC0049F06BF81023A3700323E370BAF1000FD7
:1018FC00AAD1DBB243F03003A5E70B48EBE70B486A
:10190C00E9E70B48E7E7B8F1000FD4D19CF80230B7
:10191C0068F304138CF80230CDE700BF8CB20020C2
:10192C000CB100208CB10020028000F0018000F08E
:10193C00078000F038B5104B1B780546BBB1C0B121
:10194C0002F0F1FD0D49002301EB0312147B3CB9AD
:10195C002B6001231373146002F0EBFD204638BD9D
:10196C000133082BF0D102F0E4FD0548F7E70548F8
:10197C00F5E70548F3E700BF8CB200200CB100205E
:10198C00048000F0028000F0018000F038B502F015
:10199C00CAFD0B4A05460023D1180C7B5CB91033E9
:1019AC00802BF9D103F0AEFA064B28461C7002F0DE
:1019BC00C0FD204638BD284602F0BBFD0248F9E7C1
:1019CC000CB100208CB20020058000F00D4B1B7870
:1019DC0010B5044693B1072812D802F0A4FD0A4BA7
:1019EC0003EB04131A7B2AB100241C7302F0A1FD33
:1019FC00204610BD02F09DFD0448FAE70448F8E7C4
:101A0C000448F6E78CB200200CB10020068000F0F0
:101A1C00028000F0018000F013B5164B186801909D
:101A2C0000238DF8043002F07EFD134B1C7824B19A
:101A3C0002F07FFD114802B010BD01221A7002F0B5
:101A4C0078FD0F4B1C731C7783F82C4083F83C40BB
:101A5C0083F84C4083F85C4083F86C4083F87C40FE
:101A6C0004230DEB03008DF8073003F06BFA2046CE
:101A7C00E1E700BF04BC04008CB20020038000F03E
:101A8C000CB1002010B588B00E9C07940D9C0694E8
:101A9C009DF8304005940B9C04949DF828400394C9
:101AAC000024CDE9013400920B4602462146204623
:101ABC00FFF780FE08B010BD10B588B00E9C0794DF
:101ACC000D9C06949DF8304005940B9C04949DF855
:101ADC00284003940024CDE9013400920B460246C1
:101AEC0001212046FFF766FE08B010BD08B50A4B71
:101AFC001B785BB107280BD8084B03EB00131B7B3F
:101B0C0043B1002103F014FA002008BD0448FCE79F
:101B1C000448FAE70448F8E78CB200200CB1002026
:101B2C00028000F0018000F0078000F008B50A4B3D
:101B3C001B785BB107280BD8084B03EB00131B7BFE
:101B4C0043B1012103F0F4F9002008BD0448FCE77F
:101B5C000448FAE70448F8E78CB200200CB10020E6
:101B6C00028000F0018000F0078000F008B50A4BFD
:101B7C001B7853B107280AD8084B03EB00131B7BC7
:101B8C003BB103F05DFA002008BD0548FCE70548B1
:101B9C00FAE70548F8E700BF8CB200200CB1002032
:101BAC00028000F0018000F0078000F00D4B1B78E4
:101BBC0093B1072812D889B10B4B03EB00131B7B95
:101BCC0073B10A4B1A6A012303FA00F010401ABFD2
:101BDC0000200B7008707047054870470548704727
:101BEC00054870478CB200200CB1002000200E403C
:101BFC00028000F0018000F0078000F00B4B1B7896
:101C0C0010B50C4663B107280CD859B1084B03EB3F
:101C1C0000131B7B43B103F029FA2060002010BD98
:101C2C000448FCE70448FAE70448F8E78CB20020C3
:101C3C000CB10020028000F0018000F0078000F061
:101C4C002DE9F843174E326EF36E12EA030800D5F5
:101C5C00FEE7154CDFF854900127002518EA070F12
:101C6C0016D02368B7669BB1A16862680131A16088
:101C7C0028469847637B012B0AD148B909EB4513D9
:101C8C00197B1A7F60F3410160F3410219731A77D3
:101C9C000135082D4FEA470704F11004DED1BDE8E9
:101CAC00F88300BF00200E400CB100208CB1002046
:101CBC0070B5094E0446012504B970BD94FAA4F020
:101CCC00B0FA80F005FA00F324EA030456F8203049
:101CDC00002BF1D09847EFE790B20020054B4FF462
:101CEC008022C3F880211A604FF48062C3F88021EF
:101CFC001A60704700E100E038B504460D4602F06A
:101D0C0012FC034B43F82450BDE8384002F011BCE0
:101D1C0090B20020074BD3F82804D3F81C241040B1
:101D2C0020F42A5020F02A004004400CC3F824046C
:101D3C00FFF7BEBF00A00040074BD3F82804D3F830
:101D4C001C24104020F4AA4020F055000004000C84
:101D5C00C3F82404FFF7ACBF00A000402DE9F84FF6
:101D6C00284C4FF0000A04F1A00580464FF0000902
:101D7C004FF0010B237F84F81DA06BB1D4E9002335
:101D8C00994508BF9045104619460AD2B2EB080097
:101D9C0063EB0901C4E900012834AC42EAD1BDE887
:101DAC00F88FE37F33B92377A369002BF4D084F841
:101DBC001DB0F1E7D4E90267B8EB000069EB010153
:101DCC0032463B4648F0BAFBB01A67EB0301236975
:101DDC006269002BC4E900010BDD13441D2B636108
:101DEC00E2D9461C41F100071E3BC4E90067636160
:101DFC00DAE7D31A1D2B6361D6D910F1FF3641F106
:101E0C00FF37F1E7E0B2002038B5074C0025637FBF
:101E1C001BB1A369216A284698470135042D04F1AA
:101E2C002804F4D138BD00BFE0B20020064B5A6A3A
:101E3C0099690A40D20705D501221A62034A136830
:101E4C0001331360704700BF0020044080B30020B2
:101E5C00F0B5194E00214FF0FF324FF0FF337418DC
:101E6C00257F3DB1D4E900459D4208BF94423CBF5B
:101E7C0022462B462831A029F1D1104900240C70A0
:101E8C005C1C08BFB2F1FF3F0C4614D000279F42E8
:101E9C000B496FF0640608BF9642086038BF3246A3
:101EAC000849042502440D6201234A6523704B6ADC
:101EBC0043F004034B62F0BDE0B20020D8B2002026
:101ECC00D4B20020002004400F4B1B7870B505469F
:101EDC00BBB102F028FB0D490023282606FB031298
:101EEC00947F14B935B90A4C07E00133042BF5D1B2
:101EFC00084C02E0012191772B6002F01AFB20467E
:101F0C0070BD054CFBE700BFD9B20020E0B2002049
:101F1C00041000F0011000F0061000F070B5204D18
:101F2C002C78002C3AD101211E481F4E01F060FF85
:101F3C0003211E4802F0B4F901211D48347101F04F
:101F4C0057FF304603F05AF91A49012003F03CF9C7
:101F5C00194B1A485A6A22F4FF6222F007025A629D
:101F6C0040F2FF721A62164A9C604FF08041C2F830
:101F7C00801111605A6A42F001025A622146A02275
:101F8C0048F01BFD0F4B1C700F4B1C700F4B1C6053
:101F9C000F4B1C600F4B1C6001232B70002070BD7D
:101FAC00D9B2002000250A0026A700200500240035
:101FBC00A00914002FA7002000200440E0B200204C
:101FCC0000E100E0D0B20020D8B20020DCB200204A
:101FDC0080B3002084B300202DE9F74F93465C4A70
:101FEC001278074689461E46002A00F0AD80032869
:101FFC0000F2AC8002F097FA564A282404FB07241E
:10200C008046A17F924629B902F093FA524803B058
:10201C00BDE8F08FBBF1000F08D116B10C99384612
:10202C00B047404602F085FA0020F0E74B4A4FF4E7
:10203C00004C4FF4FA7000219568A6614FF47A7247
:10204C000023ECFB0B0148F079FAB9F1010F0246C1
:10205C000B46C4E9022309D14FF47A7303FB0BFB43
:10206C001E2303FB10B323610F236361282303FB9F
:10207C0007A301304FF0010241F10001C3E9000157
:10208C001A770C9A83F81F901A62354B1B78002B29
:10209C00C7D1344C236801331EBF2368013323603E
:1020AC00314B01931A78E2B9304B2C4E1D6004234E
:1020BC00336200236FF064028B4208BF824238BF48
:1020CC00104628447065736A019A43F004037362E6
:1020DC00012313702368002BA3D02368013B2360DA
:1020EC009FE72368012BF5D1282303FB07A30026C8
:1020FC00DFF86890DFF874B01E77D9F8242022F04E
:10210C000402C9F82420DBF80000281AFFF726FE89
:10211C00FFF77AFE26B9282202FB07A201201077CE
:10212C002846FFF795FE114BD9F808501868D9F8D6
:10213C005420019BA5EB000C121A187801360028CC
:10214C00C8D09445D9D2C5E7094860E709485EE78D
:10215C00D9B20020E0B20020031000F000200440AF
:10216C00D0B20020DCB20020D8B20020D4B20020C3
:10217C00061000F0021000F02DE9F843264B1B78F6
:10218C0005460C46002B41D0032841D8002941D0EC
:10219C0002F0C9F9214B282202FB05339A7F22B9A0
:1021AC0002F0C7F91E48BDE8F8831A7F1AB902F08D
:1021BC00C0F91C48F7E7D3E900671B4B9D681B4B24
:1021CC00D3F8008002F0B5F90021A5EB08008F428E
:1021DC0008BF864215D3361A67EB0107B046B946DD
:1021EC004FF47A75A8FB052312F5804005FB0933E3
:1021FC004FEAD03243F1000142EA41422260002012
:10220C00D1E74FF000084FF00009E9E70848CAE7AA
:10221C000848C8E70848C6E7D9B20020E0B2002059
:10222C00031000F0051000F000200440D4B2002090
:10223C00061000F0021000F0041000F0F8B502F0E7
:10224C0072F9084D084F2C68BE68FFF7EFFD2B683C
:10225C009C42F8D102F06DF90022901944F1000172
:10226C00F8BD00BF80B30020002004402DE91048C9
:10227C004FF47A74A0FB04BC1BF5804204FB01CC28
:10228C004CF10003D00B40EA4340BDE8108800003D
:10229C002DE9F8431A4C02F046F9626AA1690A402A
:1022AC0022F0050153070546216221D5154AA7687E
:1022BC00154EDFF85890012111709046636A23F097
:1022CC00040363623068381AFFF748FDFFF79CFD82
:1022DC003846FFF7BDFD3268A768636DB91A9B1AC3
:1022EC0099F800200AB19942E8D2002388F800300E
:1022FC00FFF79CFD2846BDE8F84302F01AB900BF71
:10230C0000200440D0B20020D4B20020D8B200206B
:10231C00044B4FF04042DA621A6B22F040421A63CF
:10232C00704700BF00300E402C48F0B50022036807
:10233C002B4D114654592CB11E68AC18002E36D1B9
:10234C00234601210832282AF4D101B10360254922
:10235C00254E0B680022144695592DB11F68B518EF
:10236C00002F2BD12B4601240832282AF4D104B19A
:10237C000B6000681D4B026842B3DA69007922F0E9
:10238C00FF020243DA611A6B42F0804209681A6359
:10239C000A68164BF2B1DA69097922F47F4242EAF3
:1023AC000122DA611A6B42F000421A63F0BD1E7909
:1023BC002779B74284BF23460121C3E71F7995F8DB
:1023CC0004C0BC453CBF2B460124CDE71A6B22F060
:1023DC008042DBE71A6B22F00042E6E794B3002060
:1023EC00A4B3002098B30020CCB3002000300E40E2
:1023FC0008B51B4B1B4801221A700021282248F0FB
:10240C00DCFA28220021184848F0D7FA174A184B52
:10241C0013601849184A13600A684B6DC2F30742DF
:10242C00FF2A02D0DBB2FF2B01D1902319221348D3
:10243C0002EB820103EBD1010160DB000521B3FB50
:10244C00F1F313440E4A1360FFF762FF0D4B0122A8
:10245C00C3F880211A60FFF767FF002008BD00BF9A
:10246C0088B30020A4B30020CCB3002094B3002088
:10247C009CB30020B081E00F98B300208CB30020F7
:10248C0090B3002000E100E0064B186AC0B20523AF
:10249C00C000B0FBF3F0044B1B68181A00F30700E4
:1024AC0040B2704700300E4090B3002010B5144C71
:1024BC00226B616A0A4010D5124B1B681A682AB14C
:1024CC00002119605960FFF7DFFF90474FF0004380
:1024DC00E362BDE81040FFF727BF5300F9D50A4B64
:1024EC001B681A6832B1002119605960FFF7CCFFE4
:1024FC0001219047024B4FF08042DA62E9E700BFBE
:10250C0000300E4098B3002094B30020FFF7CEBFEC
:10251C0038B141B1013AB2F5006F044838BF002020
:10252C007047034870470148704700BF037000F0C4
:10253C00027000F00D490E4A0B7810B54BB9C2E988
:10254C000033C2E9023301240C7042F8230000204E
:10255C0010BD002352F823100029F6D08142F4D08C
:10256C000133042BF6D10348F2E700BF04B400207A
:10257C00F4B30020027000F038B504460D4601F0AB
:10258C00D2FFA28892B222B92A6001F0D2FF06488B
:10259C0038BD6388142202FB034308332B6001F01F
:1025AC00C8FF0020F4E700BF0B7000F038B50446FC
:1025BC000D4601F0B8FFA3889BB223B92B6001F044
:1025CC00B8FF0C4838BD6388E188142202FB034332
:1025DC0008332B6063885A1C92FBF1F301FB132325
:1025EC009BB26380A388013B9BB2A38001F0A1FF47
:1025FC000020E7E70B7000F07FB5012380F82C304A
:10260C0090F8323093B90C4A03680392002204907C
:10261C0002924A680192012200920A68016980685C
:10262C001C33FFF749FA07B05DF804FB012BEAD025
:10263C00002380F82C30F6E7952E00007FB501239F
:10264C0080F82D3090F8323083B9026834320D4B5B
:10265C0003930023049002934B680193012300938E
:10266C000B68C1684068FFF70DFA07E0012B02D137
:10267C0002682832EBE7002380F82D3007B05DF8B4
:10268C0004FB00BF95260000F7B5906A01A914461B
:10269C00FFF772FF144B984220D0019B00251D615F
:1026AC009D6001F040FF019AD668074626B1D2E939
:1026BC00002329462046B04701A9A06AFFF776FF00
:1026CC00A06A83889BB263B101A9FFF755FF0199FA
:1026DC002046FFF7B3FF384601F02BFF012003B073
:1026EC00F0BD84F82D30F6E70B7000F0427E3023FD
:1026FC005343044A1A44437F03EBC2039B001868FC
:10270C00C0B270471CA0104213B51D4A002352F8EA
:10271C002340617F81420ED00133042BF7D102B0EC
:10272C0010BD0028FBD19DF80730002BF7D0606856
:10273C00FFF7DCF9F3E794F83130022BEFD12046A8
:10274C00FFF7D4FF637D2075022BE8D194F82E306F
:10275C0003F0FF02002BE2D102A9606801F8012D01
:10276C00FFF724FA237D1BB194F82F30002BD8D01F
:10277C00002384F82F306068FFF7D8F9CFE700BF4B
:10278C00F4B3002090F8323053B903680122DA60B8
:10279C001A69D007FCD55A6F42F001025A6770478C
:1027AC00012B0CD103685A6C9107FCD401225A609E
:1027BC009A68D207FCD55A6D42F001025A657047EF
:1027CC0090F832303BB903685A6F22F001025A6715
:1027DC000222DA607047012B09D103685A6C920708
:1027EC00FCD45A6D22F001025A6502225A607047DD
:1027FC0010B50446FFF710F90021201DFFF79AF8D9
:10280C00014608B1044810BD04F10800FFF792F826
:10281C000028F8D0F6E700BF0E7000F0F8B50446BB
:10282C0017460D4601F07FFEA388E2889A420646C1
:10283C0005D800233B6001F07CFE1648F8BD2388C8
:10284C00142202FB0343083305F1100C2A4603CA79
:10285C00624518605960154603F10803F6D11068FB
:10286C0018602388E188142202FB034308333B6081
:10287C0023885A1C92FBF1F301FB13239BB2238098
:10288C00A38801339BB23046A38001F052FE002096
:10289C00D4E700BF0A7000F073B504460D46C07D46
:1028AC00E67E002934D001230422314602F0E8FAF6
:1028BC0001230222217F207E02F0E2FA94F83130CB
:1028CC00022B16D100230122617F607E02F0D8FA20
:1028DC0000230422A07EA17F02F0D2FA0123627FA2
:1028EC00607E01930093114602F07EFA002002B044
:1028FC0070BD032BFAD100230122617F607E02F0B0
:10290C00BFFA00230422A17FA07E02F0B9FAEDE702
:10291C000B460A46314602F0B3FA2B462A46217F73
:10292C00207E02F0ADFA94F83130022B10D12B46F8
:10293C002A46617F607E02F0A3FA2B462A46A07ECF
:10294C00A17F02F09DFA627F607E01950123C9E7A9
:10295C00032BCBD12B462A46617F607E02F090FA86
:10296C002B462A46CFE790F8323013B90368186922
:10297C007047012B1CD103689B6803F00200DA0737
:10298C0048BF40F00100590748BF40F008001A0743
:10299C0048BF40F02000D90648BF40F040009A06DE
:1029AC0048BF40F080005B0603D540F400507047F0
:1029BC00002070472DE9F3410D460446002879D0DC
:1029CC0001F0B1FD012D06463BD1A36A9B889BB259
:1029DC00002B3DD06068FFF7C9F80023A06A84F88B
:1029EC002D3083889BB273B101A9FFF7C5FD019906
:1029FC006068364F0831FFF701F9019B1F61A06A2F
:102A0C0083889BB253BB2046FFF7ADFF8304FAD5F6
:102A1C00023D012D10D8A068FFF7A8F80023606ACA
:102A2C0084F82C3083889BB23BBB94F83130032B59
:102A3C0002D02046FFF7C4FE304601F07AFD00209C
:102A4C0009E0022D38D1636A9B889BB2002BDFD141
:102A5C0001F06FFD1E4802B0BDE8F08101A9FFF73F
:102A6C00A5FD019BD3F80C80B8F1000FC7D09B6873
:102A7C00002239462046C047C1E76946FFF77CFD76
:102A8C000099A068114F0831FFF7B8F8009B1F613F
:102A9C00606A83889BB2002BC7D06946FFF786FD1E
:102AAC00009BDD68002DF3D09B6800223946204640
:102ABC00A847EDE70748CEE7032DA9D1A36A9B8869
:102ACC009BB2002B86D1636A80E700BF097000F0CF
:102ADC00087000F0027000F0436A9888C0B270472A
:102AEC002DE9F3410546406A84889846A4B2002338
:102AFC000E461746CDE900333CB16946FFF73CFD65
:102B0C0001A90446A868FFF779F8009971B16CB96E
:102B1C004868019BC01A3860C8F800300B683360F5
:102B2C002846FFF720FF02B0BDE8F0810021C8F86D
:102B3C00001039603160F3E7836A9888C0B270473F
:102B4C002DE9F3410546806A84889846A4B2002397
:102B5C000E461746CDE900333CB16946FFF70CFD34
:102B6C0001A904466868FFF749F8009971B16CB97E
:102B7C004868019BC01A3860C8F800300B68336095
:102B8C002846FFF7F0FE02B0BDE8F0810021C8F83E
:102B9C00001039603160F3E7007D70472DE9F0419A
:102BAC0004460E461746FFF7B3FC804650BB09207F
:102BBC0001F0D0FC0546A26A93889BB213B194F83D
:102BCC002E3013B394F8322022BB23681D6915F004
:102BDC00020533D0012384F83030002A3FD137442A
:102BEC00BE42206836D103699E06FCD555B994F8CF
:102BFC003230002B42D123685A6F22F002025A67FE
:102C0C000822DA604046BDE8F081002DD4D0FFF7F1
:102C1C0017F8D0E7012A1BD123689D6815F002052F
:102C2C00D8D1596C8807FCD404215960996889075C
:102C3C00FCD5596D41F002015965CBE70421D960EF
:102C4C0019698907FCD5596F41F002015967C1E731
:102C5C000025BFE716F8011B02F052FCC0E7012A61
:102C6C00D0D13744B742206803D183681907FCD50B
:102C7C00BCE716F8011B02F03EFAF3E7012BC1D1B9
:102C8C0023685A6C9207FCD45A6D22F002025A65E2
:102C9C0008225A60B6E7000010B50446B0B190F8AF
:102CAC002E3033B990F83130022B0AD06068FEF721
:102CBC001DFF94F82E300133DBB284F82E30002047
:102CCC0010BDFFF713FD0028F3D1EFE70048F7E73D
:102CDC00027000F010B50446D0B190F82E30CBB194
:102CEC0090F82E30012B06D190F83130022B0AD0FF
:102CFC006068FEF71BFF94F82E30013BDBB284F8C2
:102D0C002E30002010BDFFF7F1FC0028F3D1EFE7C7
:102D1C000148F7E70148F5E7027000F0057000F094
:102D2C0037B590F83150022D044618D1A37F407D61
:102D3C0001229A40A37E30215943134B0B4410B906
:102D4C0003F1806303E0012805D103F1C0631A602D
:102D5C00002003B030BD217D0029F6D1F0E7012D14
:102D6C00F6D1037D73B911238DF80730FFF794FF6B
:102D7C002A460DF107012046FFF710FF2046FFF70A
:102D8C00A9FFE5E71323EFE70CA0004090F83130E2
:102D9C00032B05D00229417518BF0175FFF7C0BF81
:102DAC0000487047057000F010B5044600283AD072
:102DBC000321FFF7FFFD00212046FFF7E7FF00216D
:102DCC002046FFF769FD94F8323003BB23680A22D2
:102DDC00DA600021206A01F00BF894F83130032BF3
:102DEC0003D00021607FFEF787FF6068FEF7EEFDE1
:102DFC00A068FEF7EBFDFEF7C9FD636A00201880A2
:102E0C0058809880A36A18805880988010BD012B38
:102E1C00DFD1206802F05BF923685A6C9207FCD46E
:102E2C000A225A60D5E70148F0E700BF027000F0B3
:102E3C00F0B587B004461646FFF76AFB0546F0B9B5
:102E4C00CDE9011604936A460E4B606A039601A9FC
:102E5C000593FFF7E3FC054688B994F82C3073B959
:102E6C002046FFF78FFC00992046FFF7C5FB94F82E
:102E7C003130032B03D025752046FFF751FF284630
:102E8C0007B0F0BD017000F073B5506A01A914468B
:102E9C00FFF772FB334B98422FD094F83200019B12
:102EAC00002836D12268116C11F4007128D02E49FB
:102EBC00196198604FF40073936401F034FB01992D
:102ECC00CD68064635B14A688B682046D31A0A6825
:102EDC000969A84701A9606AFFF768FB606A8588E1
:102EEC00ADB2002D2FD001A9FFF746FB019920466A
:102EFC00FFF782FB304601F01CFB012002B070BDD5
:102F0C00106CC5051BD51948186199604FF4807376
:102F1C00D2E7012813D12268D16A11F0800106D0C2
:102F2C00114919610021996080235363C5E7D06A68
:102F3C00400604D50D48186199604023F5E700223E
:102F4C001A619A60B9E7012323752046FFF7E8FE62
:102F5C0094F8313084F82C50032BCBD02046FFF75B
:102F6C002FFCC7E70B7000F00D7000F00C7000F038
:102F7C002DE9F041094F04460D460FCF88B001AE44
:102F8C000FC697E8070086E80700002C00F0C48401
:102F9C0045B9034E304608B0BDE8F08118BC0400BA
:102FAC00037000F034220021204647F006FD204635
:102FBC00FFF7C0FA06460028ECD12B7C84F83130A0
:102FCC00CD4A2B682360934284F8320040F07F8115
:102FDC00CA4B2362CA4BE3604FF440232361D5E90B
:102FEC0006230026626216805680968084F82C6038
:102FFC00A3621E805E809E806B6803936B89ADF824
:10300C001430AB89ADF81230AB7B8DF81030012148
:10301C00EB7BBC4884F82D6084F82F6005278DF875
:10302C0016308DF8117000F0E3FE0121B64800F067
:10303C00DFFE0121206A00F0DBFE01A928688DF873
:10304C00046002F01FFAD5F800C06A7ADCF8780048
:10305C002B7A20F4F85020F01F00104340EA032094
:10306C000321CCF87800CCF874102068DFF888C203
:10307C00604540F06281BB4240F27A81981F04287F
:10308C0040F27881A3F10B00B84240F27581A3F1B4
:10309C001100062808D9A3F11801062940F26E8107
:1030AC001F2B14BFFF213946042AE17540F26881B9
:1030BC00511F042940F26681A2F10A01052940F250
:1030CC006381A2F11001062940F26081A2F117017F
:1030DC00072940F25D811F2A14BFFF2100212176B0
:1030EC00002B58D0012B56D0022B54D0032B52D08E
:1030FC00042B50D0052B4ED0062B00F05381072B00
:10310C0000F05281082B00F05181092B00F0508106
:10311C000A2B00F04F810B2B00F05A810C2B00F086
:10312C0039810D2B00F038810E2B00F037810F2BDD
:10313C0000F03681102B00F03581112B00F02E8120
:10314C00122B00F02D81132B00F02C81142B00F08E
:10315C002B81152B00F02A81162B00F02981172BBF
:10316C0000F02881182B00F02781192B00F0268104
:10317C001A2B00F025811B2B00F024811C2B00F056
:10318C0023811D2B00F022811E2B00F021811F2B8F
:10319C000CBF0723FF23E376002A00F0A983012A42
:1031AC0000F0A883022A00F09183032A00F0908398
:1031BC00042A00F08F83052A00F08E83062A00F083
:1031CC008D83072A00F08C83082A00F08B83092A50
:1031DC0000F08A830A2A00F06F830B2A00F06E83BA
:1031EC000C2A00F06D830D2A00F06C830E2A00F07F
:1031FC006B830F2A00F07083102A00F06383112A6E
:10320C0000F06283122A00F06783132A00F06683B1
:10321C00142A00F06583152A00F06483162A00F046
:10322C006383172A00F06283182A00F06183192A3D
:10323C0000F060831A2A00F049831B2A00F04883AF
:10324C001C2A00F047831D2A00F036831E2A00F04A
:10325C0035831F2A14BFFF23002323776B7C6376EF
:10326C00AB7C6377EB7CA3762B7DA3770121204687
:10327C00FFF712FB064600287FF48CAE01F053F9E1
:10328C002F7C032F804640F037832B682A8CDA671B
:10329C005A6E42F004025A665A6F42F030025A6774
:1032AC0028684FF0FF3383642B7C032B0CBF052164
:1032BC00042102F0ADF82B684FF44062DA6020462E
:1032CC00FFF796FA0646404601F033F962E60F4ADC
:1032DC00934206D10E4B23620E4BE3604FF4502306
:1032EC007CE60D4A93421DD10C4B23620C4BE360E0
:1032FC004FF4602372E600BF00000140004204005E
:10330C0001000C004041050000350A00000401409A
:10331C000052040001000D0000080140006204008E
:10332C0001000E00C54A93427FF433AEC44B2362B6
:10333C00C44BE3604FF4702350E6DFF80CC36045D8
:10334C0048D1052B14D9981F042813D9A3F10B00CD
:10335C00052811D9A3F1110006287FF6A5AEA3F11B
:10336C00180106290AD91F2B14BFFF2105219BE642
:10337C00314699E6012197E6022195E6394693E616
:10338C000021ACE60121AAE60221A8E60321A6E66B
:10339C000521A4E60723FEE60823FCE60923FAE64A
:1033AC000A23F8E60B23F6E60C23F4E60D23F2E6EB
:1033BC000E23F0E60F23EEE60023ECE60123EAE60B
:1033CC000223E8E60323E6E60423E4E60523E2E62B
:1033DC000623E0E6DFF874C2604540F03981042B27
:1033EC0040F2F880591F032940F2F680A3F109013D
:1033FC00042940F2F380A3F10E010E2940F2F08073
:10340C00A3F11D01012940F2ED801F2B14BFFF21F8
:10341C000A21032AE17540F2E780111F032940F2CB
:10342C00E580A2F10801042940F2E280A2F10D012D
:10343C000E2940F2DF80A2F11C01022940F2DC804F
:10344C001F2A14BFFF2100212176002B00F0DC8005
:10345C00012B00F0DB80022B00F0DA80032B00F054
:10346C00D980042B00F0D880052B00F0E380062BCC
:10347C0000F0E280072B00F0C180082B00F0C08028
:10348C00092B00F0C3800A2B00F0C2800B2B00F03C
:10349C00C1800C2B00F0C0800D2B00F0BF800E2BD8
:1034AC0000F0C8800F2B00F0C780102B00F0A88014
:1034BC00112B00F0A780122B00F0A680132B00F02C
:1034CC00A580142B00F0A480152B00F0A380162BE4
:1034DC0000F0A280172B00F0A180182B00F0A08028
:1034EC00192B00F09F801A2B00F09E801B2B00F0F4
:1034FC009D801C2B00F09C801D2B00F09B801E2BB4
:10350C0000F09A801F2B0CBF0223FF23E376002AC6
:10351C0000F0D281012A00F0D181022A00F0D08182
:10352C00032A00F0CF81042A00F0E081052A00F084
:10353C00DF81062A00F0DE81072A00F0C781082A05
:10354C0000F0BA81092A00F0B9810A2A00F0B8818A
:10355C000B2A00F0B7810C2A00F0B6810D2A00F07E
:10356C00C5810E2A00F0C4810F2A00F0AF81102A09
:10357C0000F0AE81112A00F0AD81122A00F09C817E
:10358C00132A00F09B81142A00F09A81152A00F06E
:10359C009981162A00F09881172A00F09D81182A2B
:1035AC0000F09C81192A00F09B811A2A00F09A8164
:1035BC001B2A00F099811C2A00F098811D2A00F02A
:1035CC0097811E2A00F096811F2A08BF052318BF79
:1035DC00FF2342E631461CE708211AE7012118E7D0
:1035EC00394616E70A2114E700212DE708212BE7BD
:1035FC00012129E7052127E70A2125E7022385E791
:10360C00032383E7042381E705237FE706237DE774
:10361C0007237BE7082379E7092377E70A2375E774
:10362C000B2373E70C2371E70D236FE70E236DE774
:10363C000F236BE7002369E7012367E7000C0140C8
:10364C000072040001000F0000040140000801405A
:10365C00B34EB0427FF49DAC072B21D9A3F10801E6
:10366C00012940F2EF80A3F10A01052940F2EC8018
:10367C00A3F11001012940F2E980A3F112010529FF
:10368C0040F2E680A3F11801042940F2E380A3F193
:10369C001D01012940F2E0801F2B14BFFF210A21DC
:1036AC00062AE17540F2DA80D11F012940F2D88058
:1036BC00A2F10901052940F2D580A2F10F010129DF
:1036CC0040F2D280A2F11101052940F2CF80A2F183
:1036DC001701042940F2CC80A2F11C01022940F20E
:1036EC00C9801F2A14BFFF2103212176002B00F073
:1036FC00C780012B00F0C680022B00F0C580032B85
:10370C0000F0CC80042B00F0CB80052B00F0CA809D
:10371C00062B00F0C980072B00F0C880082B00F0A6
:10372C00B580092B00F0B4800A2B00F0A5800B2B80
:10373C0000F0A4800C2B00F0A3800D2B00F0A280D5
:10374C000E2B00F0A1800F2B00F0A880102B00F0A6
:10375C00AB80112B00F0AA80122B00F0A980132B48
:10376C0000F0A880142B00F09180152B00F09080B5
:10377C00162B00F08F80172B00F08E80182B00F08A
:10378C008D80192B00F08C801A2B00F08B801B2B5A
:10379C0000F08A801C2B00F089801D2B00F08880A3
:1037AC001E2B00F087801F2B0CBF0223FF23E37618
:1037BC00002A00F08780012A00F08680022A00F09F
:1037CC008B80032A00F08A80042A00F08980052A65
:1037DC0000F08880062A00F08780072A00F08A8093
:1037EC00082A73D0092A67D00A2A67D00B2A67D017
:1037FC000C2A67D00D2A67D00E2A6DD00F2A71D0F3
:10380C00102A71D0112A71D0122A71D0132A71D0BA
:10381C00142A5BD0152A5BD0162A5BD0172A5BD0F2
:10382C00182A5BD0192A5BD01A2A5BD01B2A5BD0D2
:10383C001C2A5BD01D2A5BD01E2A5BD01F2A08BF16
:10384C000823C4E608212BE7012129E7092127E7F2
:10385C00022125E7052123E70A2121E7032144E77B
:10386C00082142E7012140E709213EE702213CE71C
:10387C0005213AE70A2138E7062398E7072396E75C
:10388C00082394E7092392E70A2390E702238EE7A3
:10389C0003238CE704238AE7052388E70B2386E7B9
:1038AC000C2384E70D2382E70E2380E70F237EE7AA
:1038BC0000237CE701237AE70623CEE40723CCE43C
:1038CC000823CAE40923C8E40A23C6E40323C4E496
:1038DC000423C2E40523C0E40B23BEE40C23BCE4A4
:1038EC000D23BAE40E23B8E40F23B6E40023B4E4AA
:1038FC000123B2E40223B0E4022F7FF4D1AC607F49
:10390C000849FEF7F9F9FEF7E9F9A675267567750A
:10391C002046FFF705FAC3E4034EFFF73BBB00BF9D
:10392C00000C014015270000027000F090F83120C7
:10393C00012A10B5034610D102290ED0827D8A428D
:10394C0001D1002010BD997511B9FFF7C3F9F8E743
:10395C000129F6D1FFF7A0F9F3E70148F2E700BF20
:10396C00057000F0F0B587B004461646FEF7D0FDA2
:10397C00054600BBCDE9011604936A460F4BA06ABD
:10398C00039601A90593FEF749FF054698B994F8EB
:10399C002D3083B900F0C7FDA36A9B889BB2064605
:1039AC0033B100992046FEF749FE012384F83030EC
:1039BC00304600F0BEFD284607B0F0BD017000F0A7
:1039CC0070B588B00D220021294C2A4E04A846F06F
:1039DC00F4FF00250223012127488DF81010CDE9B2
:1039EC00015503958DF80A3000F002FA294601AA18
:1039FC00204601F0A4FC4FF6FF73E3618DF81250E2
:103A0C00354604A9204601F047FC1C4800F0D0FACA
:103A1C009DF81230D8400133DBB20A2B30608DF8A0
:103A2C00123002D8164B9842EBD81648164C00F0C0
:103A3C00BFFA1649B1FBF0F12868154A0025E1FBE5
:103A4C00004500232046294646F078FD114B084AD4
:103A5C001860114B00201870936923F010039361C8
:103A6C000E4B4FF40062C3F880211A6008B070BD91
:103A7C000080014008B40020000204004041050011
:103A8C0080841E007000020020A1070000B0710BA2
:103A9C0040420F000CB4002010B4002000E100E004
:103AAC001E4BF7B519681E4C1E4A1F4E0025E0FB35
:103ABC00014520462946002346F040FDDFF86CC046
:103ACC004FF6E85400254FF6E75E4FF0FF378D4276
:103ADC0008BF844211D380B260B1144A516A89B2D2
:103AEC00536A9BB2ADF80630BDF806305B1A9BB238
:103AFC009842F5D8002003B0F0BDDCF8242092B237
:103B0C00DCF824309BB2ADF80430BDF804309B1ABD
:103B1C009BB27345F4D980197941D8E708B40020D9
:103B2C0020A1070040420F001802FFFF0080014057
:103B3C00044BDA68D20604D510225A61024B0122DA
:103B4C001A7070470080014010B400202D4B002AE1
:103B5C0070B52D4D446B08BF1D462C4B14BF102661
:103B6C00002698423AD102293FD004D8B9B1012994
:103B7C0021D000232DE0062931D0812935D003290D
:103B8C00F7D1234B1A6819681B68120C1B0C03F035
:103B9C00F00302F4FE421A43C1F3034318E01D493B
:103BAC000B680A6803F4FE4302F00F021A430B6819
:103BBC0003F0F0030CE0174A1368116812681B0C31
:103BCC00120C02F0F00203F4FE431343C1F3034260
:103BDC001343B3402C400D4A2343536370BD0E4B2B
:103BEC001A681B6802F00F02E2E7094A13681168B1
:103BFC00126803F4FE4301F00F010B4302F0F002D4
:103C0C00E6E700BF0080FFFFFFFF008000200040C0
:103C1C001482E00F1082E00F1882E00F38B50C46CA
:103C2C0002238360002289780546FFF78FFF2079F5
:103C3C0061786279030243EA016343EA0243E27862
:103C4C0043EAC203E2790AB143F00053227A0AB183
:103C5C0043F00403A2790AB143F00203627A0AB179
:103C6C0043F00103F328A27806D12AB903299CBF9B
:103C7C0023F0706343F0806351B20029ACBF43EA78
:103C8C00421343F0E0032B616B69002923F4F21318
:103C9C0023F00703BCBF22F080021343227843EACF
:103CAC004243E27A0AB143F480436B616D0105F142
:103CBC008445A37AAB6038BD0C4B984210D90C4BA1
:103CCC00984210D9022201230A490B600A49D1F803
:103CDC00003123F0807343EA0263C1F8003170476E
:103CEC0000221346F0E70122FBE700BF0048E80181
:103CFC000090D0034000C84300400E400E4B30B53E
:103D0C000E4C5B68C9B2002304EBC30215798D42DB
:103D1C0003D154F8335085420BD20133052BF3D128
:103D2C00032205494B6823F0407343EA02634B605E
:103D3C0030BD5279F5E700BF00000E4044BC0400D2
:103D4C0038B5074C41F67133256C236401F04EFCF9
:103D5C000021FFF7D3FF0DB10023236438BD00BF52
:103D6C0000000E40044BD3F84421D20703D4D3F8FF
:103D7C0040211042FBD1704700400E400C4AD2F853
:103D8C009030516A0B4B21F0300141F0100110B50D
:103D9C005162146BC0F3C31103310F2903EA0403FE
:103DAC0028BF0F21034343EA0173136310BD00BF07
:103DBC0000400E4000F8FF0F044A1368002BFCD1A2
:103DCC00034B5868C0F30140704700BFC800C6439E
:103DDC0000300E4038B5054C41F67133256C236428
:103DEC00FFF78CFF0DB10023236438BD00000E409B
:103DFC00C0F30322013A38B50546092A13D8DFE887
:103E0C0002F023131212051619121C20104C00205C
:103E1C00C5F3043508B1FFF7A5FF04F1047405EBF5
:103E2C00C404A400216038BD00200A4CF0E7012036
:103E3C00094CEDE71020094CEAE74FF48030084CB0
:103E4C00E6E70020074CE3E70020074CE0E700BF63
:103E5C00B0400E40C0400E40E0400E40E8400E40E6
:103E6C00F0400E4050410E4000400E4000F00F005C
:103E7C000138072848D8DFE800F0040F1947232D34
:103E8C004735244BD3F8943003F00703023B052B42
:103E9C003CD8214AD05C70471E4BD3F8803003F0DD
:103EAC000703013B032B33D81C4AF3E7194BD3F818
:103EBC00843003F00703013B032B29D8184AE9E7A8
:103ECC00144BD3F8883003F00703013B032B1FD8A6
:103EDC00144ADFE70F4B1B6F13F0010F14BF0920BF
:103EEC00072070470B4BD3F85C3103F03003202BC9
:103EFC0006D0302B06D0102B0CBF072001207047AA
:103F0C000420704708207047002070470520704738
:103F1C000120704700400E4034BC04003ABC040041
:103F2C003EBC04003ABC040008B50146FFF79EFFF6
:103F3C001B4B994211D01B4B994212D01A4B9942F0
:103F4C0004D11A4BD3F8800000F007000138032885
:103F5C0024D8DFE800F00A0E1612144BD3F88400B4
:103F6C00F2E7124BD3F88800EEE7BDE8084001F009
:103F7C009BBBBDE8084001F09DBBBDE8084001F0CB
:103F8C0096BB01F05BFB094BD3F80031C3F3006324
:103F9C005A1C01239340B0FBF3F008BD0020FCE752
:103FAC00030020000500240002001E0000400E400B
:103FBC0000F47810B0F5A01F08B56CD021D8B0F57E
:103FCC00202F07D00AD8B0F5003F59D0B0F5802F7C
:103FDC004BD0A8BBBDE8084001F00CBBB0F5602F7E
:103FEC0000F08380B0F5801F00F08780B0F5402F83
:103FFC0026D101F0FFFA474BD3F81431C3F3042355
:10400C003AE0B0F5001F59D013D8B0F5D01F57D0F7
:10401C00B0F5F01F3AD0B0F5B01F11D13E48FFF704
:10402C0083FF3C4BD3F8202102F00F020123934075
:10403C0023E0B0F5381F38D004D8B0F5101F52D09B
:10404C00002008BDB0F5401F43D0B0F5481FF7D194
:10405C003248FFF70BFF07284FD0082850D0042810
:10406C00EED1BDE8084001F0FBBA01F0C3FA294BD0
:10407C00D3F80C31C3F308230133B0FBF3F0E0E7C2
:10408C0001F0B8FA234BD3F80831F3E72248BDE826
:10409C000840FFF749BF2248FFF746FF1D4BD3F8F6
:1040AC00303103F00303D840CBE71B48FFF73CFF4C
:1040BC00184BD3F82031C3F30113F4E71948E6E7A2
:1040CC001848FFF731FF134BD3F82821C2F3011224
:1040DC00ACE71448FFF728FF0E4BD3F82831C3F395
:1040EC0001231A1DA2E70E48D1E70F48FFF7BEFEC9
:1040FC00072802D00928A3D16CE70C4B1868A0E75D
:10410C0001F078FA034BD3F80031C3F3042303FB1B
:10411C00000096E700400E4002001E00B80032007E
:10412C00050024000300200006000E0038A7002024
:10413C000E4B5A6A12F0300F04D0202913D03029BC
:10414C0000D011B94FF4400200E0094AD3F89010A6
:10415C0032EA0101FAD1520246BFD3F8A000C0F3F3
:10416C008020012070474FF40002EFE700400E4022
:10417C00FF33E10702280AD129B1064B4FF48060C6
:10418C00C3F8A800596612B10220FFF7D1BF012075
:10419C00704700BF00400E40F8B5042850D8DFE847
:1041AC0000F00A03116F74008026402406230725B3
:1041BC00002951D048E04FF400764FF48074082366
:1041CC000925F5E7002944D0324C636A13F0300F0F
:1041DC0037D1314BDB6B636ADB0705D5636A23F0A0
:1041EC00300343F010036362042402230325294E99
:1041FC0034662A4E33449B001F68002FFCD0FAB162
:10420C003544AD002B68002BFCD0022818D1B9B175
:10421C00204E716A11F0010118D001222021FFF704
:10422C00A9FFD6F89C70012200210220FFF7B4FFF1
:10423C00C7F30A00FFF7A2FD34662B68002BFCD0F5
:10424C00F8BD0424022303250021D0E7FFF770FFFB
:10425C00E7E70826022303250E4901200E6600FA23
:10426C0003F3D1F890001842FBD1002AE8D00123C7
:10427C00084A03FA05F5D2F890302B42FBD1DFE760
:10428C00012402260023254692E72026102404232D
:10429C0005258DE700400E4000300E408004F210E2
:1042AC00112870B506460C4626D1042912D101F00E
:1042BC00D7F90546A8B10021284600F047FB06F0C7
:1042CC000F06013E072E72D8DFE806F023186D7139
:1042DC006B8B7196052904D1624B1D68624B9D4214
:1042EC00E9D8023C0A2C62D8DFE804F01E51434A9C
:1042FC00616161616155B7000025E0E75B4D013CF0
:10430C00092C54D8DFE804F06B545B5353625353BD
:10431C005351023C0A2C4AD8DFE804F0073A2C33FC
:10432C0049494949493E4100002500200424012205
:10433C001146FFF731FFFFF703FD1DB14C4A13681F
:10434C00002BFCD14B4B4C485C67FFF731FEFFF761
:10435C00B3FC01F073F90446FFF72EFD014620462D
:10436C00FFF738FD1DBB28460121BDE8704000F069
:10437C00EDBA00254148FFF79FFC02200446D6E722
:10438C0000253E48FFF798FC01240320CFE70025C9
:10439C0001200324CBE7002503200524C7E70724CD
:1043AC00C9E7374DABE7374DA9E704232B6070BD48
:1043BC00012211460020FFF7EFFE0223F6E701224F
:1043CC0011461046FFF7E8FE0123EFE701F036F93E
:1043DC00FFF772FC2C4B01221A600323E6E7002343
:1043EC00E4E7072C04D0092CE1D1224B012201E097
:1043FC00204B00221A67DAE7013C072CD7D801A31F
:10440C0053F824F063440000BB430000BB4300009E
:10441C0055440000BB430000BB4300004744000070
:10442C003144000003221349D1F85C3123F03003EE
:10443C0043EA0213C1F85C31B9E7012211460420AA
:10444C00FFF7AAFE0122EEE7012211460220FFF738
:10445C00A3FE0222E7E70022E5E7FFF771FC002547
:10446C0007246FE744A70020002D310180400E4047
:10447C00C800C64300400E4000250A000148E80170
:10448C0088400E4084400E400816C84310B50446C0
:10449C001120FFF7EBFC012200210220FFF77CFE2C
:1044AC00174A217C536A23F00103022908BF43F009
:1044BC0001035362134B21781960637AA18843EA94
:1044CC00C123D362136BA07A217A03F07F63034379
:1044DC00E08843EAC02343EAC11303310F2928BF04
:1044EC000F2143EA01731363A37B617B1B0143EA36
:1044FC000133E17B0B43217B43EA0143536310BD42
:10450C0000400E40A004C843EFF3108072B6704711
:10451C0000B962B67047602383F31188704700239B
:10452C0083F311887047EFF31180602383F31188B4
:10453C00704780F3118870474109054A00F01F034A
:10454C0052F82100D840C04300F00100704700BF72
:10455C0000E100E010B50446EFF31083DB0733D421
:10456C00FFF7EAFF00282ED1002CA7BF04F160440E
:10457C0004F5614404F00F04144BACBF94F8002311
:10458C001A5D5209EFF3118313B1B2EB531F1BD217
:10459C000F4C6368C3F30803ABB1103BDBB259B2E9
:1045AC000029B5BF03F00F0301F16043043B03F591
:1045BC006143B6BF1B1993F80003187E4009824271
:1045CC0034BF0020012010BD0120FCE714ED00E0F9
:1045DC0000ED00E0024A1368002BFCD1704700BFCD
:1045EC00C800C64342EA032340F2011293422BD087
:1045FC00B3F5817F08D2012B1DD030D3B3F5807F6A
:10460C0031D0002213461CE040F20122934222D00A
:10461C0006D8B3F5007FF4D1174BD3F870310DE009
:10462C00B3F5407F23D040F201329342E9D1124BD3
:10463C00D3F878310BE0104BD3F87431C3F3072265
:10464C00DBB203600A6070470B4BD3F874311A0E5F
:10465C00C3F30743F5E7084BD3F87831EEE7064B85
:10466C00D3F86C31EAE7044BD3F86C31EFE7024B2B
:10467C00D3F87031EBE700BFB081E00F08B5FFF75E
:10468C00A9FF084B19685A68C1F30121C2F3014212
:10469C0091421A688CBF42F0100222F010021A608C
:1046AC0008BD00BF00300E40064B1B68DB0608D56A
:1046BC00054B1B69C3F30443082B02BF034B044A8D
:1046CC001A60704700300E4000400E4044A7002096
:1046DC00C0EA2101154B0228D3F8803113D00328EE
:1046EC0014D0012814BFDBB2C3F307231B0323F43C
:1046FC007042B1B9BAB90E49CA6E22F47042134372
:10470C00CB6601207047C3F30743EFE71B0EEDE7C1
:10471C000749D1F8EC2022F470421343C1F8EC3075
:10472C00EFE7002AF4D00020704700BFB081E00F03
:10473C0000300E4038B5234B234D1B7823492448B9
:10474C00C3F10202102393402B6145F60E03D1F8FE
:10475C008041C1F88031036823F0AA03DB05DB0D2F
:10476C000B66FFF737FF2B6813F0100F04F00104F2
:10477C00054614D0D1F84031DA01FBD4154B1B6837
:10478C000B61154B197805290DD1144B1868FFF7DF
:10479C0021FF0D4B5968C1F30141FFF71BFB0E4B79
:1047AC001978052902D01120FFF77AFD2B68DB0759
:1047BC005EBF064B02221A661CB1044B0022C3F8E2
:1047CC00802138BD25B4002000300E4000400E4042
:1047DC0014B4002020B400201EB4002044A70020F4
:1047EC0010B50B4C0B4BD4F890201A601120FFF72E
:1047FC003DFB094B1870FFF7EDFE084B084A5B6850
:10480C00C3F301431370074B22691A6010BD00BF3C
:10481C0000400E4014B400201EB4002000300E40A6
:10482C0025B4002020B400207047704710B5044612
:10483C0008B1FFF7D5FFFFF721FF0A4A136943F0D0
:10484C0004031361FFF7F0FF30BFFFF7EEFF1CB15D
:10485C00BDE81040FFF76EBFFFF726FFBDE8104024
:10486C0000F0ECBE00ED00E010B5044608B1FFF717
:10487C00B7FFFFF703FF124BD3F8802145F60E016B
:10488C00D207C3F8801148BF00224FF4207119667B
:10489C0048BFC3F880210B4A136943F0040313612A
:1048AC00FFF7C2FF30BFFFF7C0FF1CB1BDE81040DF
:1048BC00FFF740BFFFF7F8FEBDE8104000F0BEBEAA
:1048CC0000400E4000ED00E00A4B9A69996922F411
:1048DC00403242F4003241F440314AF6E8509860DC
:1048EC009A6199619A6199619A6199619A619961E8
:1048FC009A61704700300E40F8B5124B124DD3F848
:10490C00003104460F4600F075FE0646FFF762FEC6
:10491C006A68C2F30142944213D0022C02D12146A0
:10492C00FFF758FAC4F10202102393402B610FB128
:10493C00FFF750FE2CB921463046BDE8F840FFF792
:10494C0049BAF8BD00400E4000300E4038B50C4B53
:10495C000D46D3F8004128B900F04CFEC4F30424F2
:10496C0004FB0000074B1B7829463BB1064B9842D1
:10497C0004D80220BDE83840FFF7BEBF0020F9E79D
:10498C0000400E4024B40020FF2C31010378134A60
:10499C00002B437870B514BF04260026002B8378B7
:1049AC00946914BF02250025002B037924F03F04E1
:1049BC0043EA0403C47814BF08210021012C08BF6A
:1049CC0043F0010333432B430B4393611368417949
:1049DC0023F4403343EA0143136070BD00300E40B2
:1049EC00224B4AF6E85210B5596B5A639A6FD407AA
:1049FC00FCD41B6C13F003031EBF1D4A012414606E
:104A0C00834203D108B91A4B186010BD032B17D081
:104A1C00B3B1164A1446936FDB07FCD4136C23F026
:104A2C00030303431364A36F13F00103FBD10030A2
:104A3C000F4A18BF01200129106008BF6363E4E727
:104A4C00431E012BE5D8094B4FF40022DA629A6F12
:104A5C00D207FCD41A6C22F0030242F001021A6451
:104A6C00024A536A1C03FCD5D3E700BF00300E404A
:104A7C00B40AC6432DE9F04F002389B0CDE90233C7
:104A8C00CDE90433CDE90633A0F5E163B3F5966FB8
:104A9C0005460191934603D9002009B0BDE8F08F7B
:104AAC004D4BB0F5E16F8CBF4FF0010A4FF0000A8F
:104ABC00D3F8683100F083801A0EC3F307430792D2
:104ACC0004934FF496694FF4E164DFF81081D8F841
:104ADC004C70C7F301773B46524605A902A8FFF775
:104AEC0081FDD8F8EC60C6F301263346524606A980
:104AFC0003A8FFF777FD0798049A2C1B811A6143D2
:104B0C00B1FBF9F3D1182CBF012300238842C3D386
:104B1C00002BC1D1069A0398131A6343B3FBF9F324
:104B2C0010EB030A2CBF012300235245B4D3002BF6
:104B3C00B2D1059B029A981A4443B4FBF9F912EBD3
:104B4C0009092CBF012000204B45A5D30028A3D177
:104B5C00BBF1000F0ED0D8F85C3023F4FE4323F0E9
:104B6C000203B5F5E16F43EA012318BF02200343AA
:104B7C00C8F85C30019B63B300213846FFF7AAFDEF
:104B8C00002889D001213046FFF7A4FD002883D0EE
:104B9C00124A536ED14538BFD14623F4FF73B9F195
:104BAC00E70F23F0010328BF4FF0E709B5F5E16FDC
:104BBC0018BF43F0010343EA490353666DE7C3F39F
:104BCC000722DBB2079204934FF416794FF49664E4
:104BDC007BE7012061E700BFB081E00F00300E40A1
:104BEC00304B1A6FD96CC90702F0070242D5012A63
:104BFC0040D9132851D9143813288CBF10230823FB
:104C0C002849013BCA6C180322F47F4240EA032373
:104C1C001343CB64244BCA6C1B88C2F30322283386
:104C2C00013202EB820003EB5303B3FBF0F3C86CCD
:104C3C00013B072B20F0EE6028BF072340F48010C7
:104C4C0040EA0363CB64194BB3F90030002B10DB43
:104C5C002833500800EB420203EB5303B3FBF2F38F
:104C6C000A6D072B28BF072322F0700242EA0313B8
:104C7C000B657047DB6CD90706D4012A04D80928C8
:104C8C000BD90A380928B8E7064BDB6C13F0010383
:104C9C00B6D0012A03D82728AFE70423B0E70023B6
:104CAC00AEE700BF00300E401AB400201CB4002048
:104CBC00054A064B1B68136F23F007031843044B7C
:104CCC0010671888FFF78CBF00300E408009C64370
:104CDC0018B4002038B5364B02229A639B6B03F054
:104CEC000F039342044602D00025284638BDC188E4
:104CFC00B0F90C504A294ED9B1F5FA7F4DD340F694
:104D0C00C313994294BF4FF000514FF040512848C3
:104D1C00C36C23F0405323F00103002DA8BF43F0D4
:104D2C0001030B43C364D0F8EC3043F44073C0F878
:104D3C00EC30C36E43F08073C3661E4B186800B131
:104D4C000420FFF7B5FF1C4B218919801B4BB4F9CC
:104D5C000C201A801A4BA0881880FFF741FFA37B08
:104D6C00F3B1012B20D0012211466088FFF782FE9F
:104D7C0005460028B8D00E4A6078D36B43F48063A4
:104D8C00D363FFF72DFEA37AA3F1200253425341C4
:104D9C000C4A1360A9E70021B9E74FF08051B6E740
:104DAC00034B094A9A65DEE7014B084AFAE700BF54
:104DBC0000300E408009C6431AB400201CB40020F9
:104DCC0018B400209407C64377402057372110B7FA
:104DDC00044AD2F8443423F003031843C2F84404C1
:104DEC00704700BF00A00040072A70B501F0030116
:104DFC004FF00F0523D896001A4CB540256004F1EE
:104E0C000074B04020600320B04001FA06F6164949
:104E1C00086001F100710E601449114489000B60A7
:104E2C009DF81030C1F88030012303FA02F2104BC8
:104E3C00C3F824249DF81430C1F8003370BDA2F1DE
:104E4C000804A4000B4EA54035600B4DA040286013
:104E5C000320A04001FA04F40849086001F1007134
:104E6C000C60D9E700A4004408A4004480208510FD
:104E7C0000A0004004A4004404A400460CA4004478
:104E8C00F0B54AB130261E4C012546438D403444C2
:104E9C000BB304F1C06425603024444304F1804416
:104EAC00072904F5204419D865688E000F27B740F0
:104EBC0025EA070502FA06F63543656052B9012268
:104ECC0002FA01F1302250430D4A0244A3B102F11F
:104EDC00C0621160F0BD04F18064DCE701F1804533
:104EEC00083DA668AD000F27AF4026EA070602FA78
:104EFC0005F53543A560E1E702F18062E9E700BF03
:104F0C000CA00040074B4FF40072C3F88020BFF395
:104F1C004F8FBFF36F8F044B04480021D966196281
:104F2C00FEF766BF00E100E000200E4000550A00CD
:104F3C00034B03449B0081F001011960704700BFD3
:104F4C00A001F11010B5044601211148FEF750FFE5
:104F5C00B4F8013022785BBA9BB243EA02630D4A83
:104F6C00136000231362D36253634FF00043D36684
:104F7C004FF0FF339366084A4FF40071C2F880116A
:104F8C00E3785B01DBB282F80933116010BD00BF1E
:104F9C0000550A0000200E4000E100E02DE9F04130
:104FAC00254D91F80BE091F80AC00F7B0C464FF0A1
:104FBC003008C3B2012608FB00509E402368497B91
:104FCC00C0F880304FEA0E5343EA0C4343EA475390
:104FDC0022F00302C0F88810C0F88430C0F8982082
:104FEC00AE66FFF7A0FAEB6E3343EB66237A13B190
:104FFC006B6B33436B63637A13B1EB6A3343EB62D2
:10500C0022792B6822B1D243120262F47F42134000
:10501C0062790AB143EA0223A2790AB123EA0203B4
:10502C00E27902B11343044A1360044B1E60D66349
:10503C00BDE8F041FFF77DBA00200E4028200E4459
:10504C0010B5C0B201248440FFF76DFA054AD36E47
:10505C0023EA0403D366044B1C60BDE81040FFF741
:10506C0068BA00BF00200E4020200E44F8B5C3B231
:10507C0001259D400446FFF756FA0A4B30221E6E5E
:10508C009F6A02FB0434D4F88C40FFF752FA3D427D
:10509C0006D1C4F30A1008B9354200D10130F8BD6D
:1050AC000020FCE700200E40036CDB0702D4436CAD
:1050BC000B42FCD17047CB435B0003F00A0310B5E5
:1050CC0041EA03020221FFF7EFFF426010BD436C7F
:1050DC00002BFCD101220264EA22426040F2F972F8
:1050EC000360C3600361436183634263C3634365CD
:1050FC0083650364704710B502460C469368DB0663
:10510C00FCD540211046FFF7CFFF946210BD000084
:10511C00054B5A685B68054B41F671321A649A6804
:10512C0022F001029A60704700300E4000000E40E1
:10513C00034B9A6822F001029A6000221A647047AD
:10514C0000000E4010B590FAA0F2054C2368B2FA9C
:10515C0082F223EA000091400143216010BD00BFA0
:10516C0000500E40014B01229A60704700500E40D7
:10517C00124BF0B55C68124D124E0023184637687E
:10518C00EA187F0751685A5908D4B2F5806F03D0DA
:10519C000DD8B2F5007F01D141F48071144202D0D8
:1051AC00214208BF10430833482BE8D1F0BDB2F5BB
:1051BC00006FF1D0B2F5803FEDE700BF00500E401C
:1051CC006CBC0400E841E00F8B784A789B0143EA01
:1051DC0082030A781343CA7843EA02130A7943EA32
:1051EC00C2234A7943EA02338A79043043EA4243C0
:1051FC000001014A135070470020044042780179A5
:10520C000378002A827870B514BF04260026002A81
:10521C00C27814BF10250025002A42794FEA0232C9
:10522C0042EA012242EA0302837914BF20240024BB
:10523C00002BC37942EA034343EA0603027A43EAAA
:10524C00050314BF4FF4004100212343002A14BF6F
:10525C004FF4003200220B431343014A136070BD1C
:10526C00002004400B4A536911699B0003F03C0376
:10527C00C1F381110B438370136903F03F03437037
:10528C009369D26903F0F003C2F303121343037062
:10529C00704700BFD0FF0FE02DE9F04F0C780CB930
:1052AC0002234360002343624B78CA7891F802B022
:1052BC008D7A91F808A091F8069091F80780002B50
:1052CC004B7A4FEA024214BF4FF0400E4FF0000EE3
:1052DC0042EA0B62002B14BF8023002342EA0A022D
:1052EC00002DCD7A42EA892214BF4FF0200C4FF0EA
:1052FC00000C42EA0822002D0D7B42EA0E0214BF7C
:10530C00102700271343002D0D79497943EA0C032C
:10531C0014BF082600263B43002D14BF4FF4005544
:10532C0000253343002914BF4FF0805100212B433B
:10533C000B4303600CB101234360BDE8F08FF0B563
:10534C00537814781B0643EA846394792343947846
:10535C0043EA0443D47843EA0433147943EA8423BC
:10536C00547943EA0423D479002C147A14BF4FF0F7
:10537C0080470027002C547A14BF4FF000560026AB
:10538C00002C947AD27A43EA027343EA070314BFDF
:10539C00102500253343002C01F1060114BF042411
:1053AC0000242B43090123434350F0BD70B505463F
:1053BC0016461C4619B91448FEF7FAFD0146202C76
:1053CC0008D001D8ECB170BD402C18D0602CFAD1AB
:1053DC00042200E0082206FB02F35A0802EB4112F9
:1053EC00B2FBF3F2094B203A03EAC2022B6823F01A
:1053FC0060032B602B681C432C606A61E3E7062278
:10540C00E9E71022E7E700BF40410500F8FF7F0005
:10541C00CB435B0003F00A03C360C160704700001C
:10542C0040F6AA63C36041F20502002303604260A8
:10543C00104A83604361C364826403664367836775
:10544C00C3670D4B0D4A984209D0904207D003F523
:10545C000063984203D003F58063984201D1002386
:10546C00036500239042836502D0054A904200D127
:10547C00C3657047F9FF01000000014000040140C2
:10548C00000C014038B505460C46FFF7C9FF8B7C74
:10549C001BB1036843F080430360E37C1BB1237DA5
:1054AC0043F08003AB65228A637B1343E289134389
:1054BC006B60D4E90112237B2846FFF777FF637DED
:1054CC001BB12B6843F480332B60A37DE27D1B075B
:1054DC00120502F4E00203F0E04313432B666B6FFA
:1054EC0023F030036B676A6F237E13436B6723785B
:1054FC00EB6038BD03691B06FCD5C069C0B27047B0
:10550C0003695B06FCD5416370470368DB060FD467
:10551C0047F231538268D20701D5013BFAD10368B7
:10552C0003F001038B421EBF00F1047040010160C7
:10553C0070470368D90707D583689A0704D4836832
:10554C00DB07FCD40123436070474B78CA78002BEF
:10555C008B782DE9F04114BF4FF0020E4FF0000E86
:10556C00002B14BF04230023002A0A7991F807802A
:10557C000C7814BF4FF0080C4FF0000C002A4A793D
:10558C0014BF20270027002A8A7914BF4026002642
:10559C00002A0A7A4FEA022242EA083291F809807C
:1055AC0042EA0402CC7A897A42EA084242EA01626F
:1055BC0042EA0E0243EA020343EA0C0343EA0703FE
:1055CC0014BF102500253343002C14BF4FF00044AA
:1055DC0000242B43234347F231528168C90701D57C
:1055EC00013AFAD10360BDE8F08100000048704731
:1055FC0000F049020D4AD2F8943003F00703032B54
:10560C0011D0042B03D0022B0BD1094B00E0094B1A
:10561C001868D2F80031C3F304230133B0FBF3F064
:10562C007047054BF4E74FF40040F2E700400E40A2
:10563C0040A7002048A7002044A7002008B5FFF78A
:10564C00D9FF054BD3F80831C3F308230133B0FB62
:10565C00F3F0024B186008BD00400E403CA7002040
:10566C00014B1868704700BF40A70020054B18601D
:10567C00054BD3F8943003F00703022B01D1FFF74D
:10568C00DDBF704740A7002000400E40044B054A88
:10569C009A60D3F8882042F47002C3F888207047CF
:1056AC0000ED00E0000100004FF4004070474FF4A3
:1056BC007A707047014B1868704700BF48A70020EC
:1056CC0010B50D4C23681B0C1B0433B10B4A9342D1
:1056DC0003D048210A4800F0EDFA2388B3F5804F37
:1056EC0003D34A21064800F0E5FA00F099F80028A7
:1056FC0014BF8620002010BD2808E10F0000E10F28
:10570C00B4BC0400174B10B51B689A69D20386B061
:10571C0002D4002006B010BD1B6B01A85B68984733
:10572C0005990029F5D08B680F4C4A880F48B3F5C2
:10573C00803F2ABF9B0AE380E3800B8823804B6861
:10574C00A38028BF42F01002CB686280A3600422C1
:10575C000B69E360143100F0F3FC059B02481B7EDF
:10576C002375D7E72808E10F74D6002084D60020D3
:10577C0008B5084B1B689A69D20309D51B6B064800
:10578C009B690121984718B940F202202BF086FF43
:10579C00012008BD2808E10F28B40020074B1B6826
:1057AC0010B59C69E40306D51B6B9B6B98470030C6
:1057BC0018BF012010BD0120FCE700BF2808E10F35
:1057CC00074B1B6810B59C69E40306D51B6B5B6B20
:1057DC009847003018BF012010BD0120FCE700BF26
:1057EC002808E10F08B5074B1B689A69D20306D548
:1057FC001B6BDB6B9847003018BF012008BD0120E4
:10580C00FCE700BF2808E10F044B1B689A69D20320
:10581C0002D51B6B1B6B1847012070472808E10F42
:10582C0070B50E4C2368A3F17E63A3F58433B3F5F6
:10583C00104F0DD2FEF777FE094B1D7801221A701E
:10584C00FEF777FE3DB92368BDE87040DB69184769
:10585C004FF4817070BD0020FCE700BF2808E10FF9
:10586C002CB40020FE2807D1102A0CD169B108787D
:10587C00FF3818BF01207047102804D8012A94BFA4
:10588C000020012070470120704708467047000037
:10589C0010B506481C460EF08AFD20B12078B0FAEF
:1058AC0080F0400910BD0120FCE700BF8EE404002D
:1058BC00F0B50C4687B0284906460220FBF7B5FB2D
:1058CC0000230593D4E90473257B3A4619462846F0
:1058DC00FFF7C8FF58B101238DF8143073691B789A
:1058EC00FF2B30D1182386F8343007B0F0BD17B336
:1058FC00002B08BFFF250123009300220DF1130399
:10590C00164996F8200007F089F8626996F820701D
:10591C002188238B88B99DF81300C0070DD52079F9
:10592C000095CDE90123A2680346384609F01EFE16
:10593C008DF81400D2E7FF25DDE7CDE90123002324
:10594C0000951A46F1E72388ADF8163005A93046C4
:10595C0002F0AAFBC9E700BF8FC204008EE404006A
:10596C0070B50E4694B03F4905460220FBF75DFB2F
:10597C001C2200210DA845F020F83B4A1068516804
:10598C00127A04AB03C31A7003AA33880F92FF2256
:10599C0000248DF840204FF6FF728DF80C408DF8E6
:1059AC000F40ADF83630ADF84C201BB16B691B784D
:1059BC00FF2B0BD18B238DF834306B691B78FF2BAD
:1059CC0041D1182385F8343014B070BD01230093F5
:1059DC0095F8200025490DF10F03224607F01EF81B
:1059EC001823E2B2112107A801F01EF933884FF6F3
:1059FC00FF7293422CD0BDF81C209A420BD195F823
:105A0C0020209DF81E309A4205D19DF82030FF2BA6
:105A1C0005D10023CFE70134042CE1D1CAE7FE2BDA
:105A2C008DF840300CBF102301230DF1210211938E
:105A3C00BDF83230129241F23362002B08BF13468C
:105A4C00ADF84C30E5E70DA9284602F033FBBBE777
:105A5C009DF80F30DB07DCD504AB0F9309230E93B5
:105A6C00D7E700BFD7C204006CC204008EE4040068
:105A7C002DE9F043A7B00C460746364902200DF13C
:105A8C004808FBF7D2FA022350224146204605F083
:105A9C00DAFE2022002105460AA844F08EFF09F008
:105AAC0068FB00268DF82800ADF80260A5BB04A8A1
:105ABC001823EAB2112101F0B7F8BDF8100058B163
:105ACC0097F820209DF812309A4205D105230DF14C
:105ADC00020201A909F044FC0135042DE7D1BDF8FF
:105AEC00023026AA02EB43024FF6FF71013322F873
:105AFC00941CADF8023011E038F8169097F820009D
:105B0C00494609F04AFB30B105230DF1020201A907
:105B1C00484609F025FC0136B542EDD801AB0834F6
